:100000000C94C7010C94E4010C94E4010C94E401F9
:100010000C94E4010C94E4010C94E4010C94E401CC
:100020000C94E4010C94E4010C94E4010C94E401BC
:100030000C94E4010C94E4010C94E4010C94E401AC
:100040000C94E4010C94E4010C94E4010C94E4019C
:100050000C94760A0C94E4010C94E4010C94E401F1
:100060000C94E4010C94E4010C94E4010C94E4017C
:100070000C94E4010C94E4010C94E4010C94E4016C
:100080000C94E4010C94E4010C94E4010C94E4015C
:100090000C94E4010C94E4010C94E4010C94E4014C
:1000A0000C94E4010C94E4010C94E4016E616E0084
:1000B000696E660000407A10F35A00A0724E18096B
:1000C0000010A5D4E80000E87648170000E40B54BF
:1000D000020000CA9A3B000000E1F505000080968E
:1000E0009800000040420F000000A08601000000C0
:1000F000102700000000E80300000000640000007A
:1001000000000A00000000000100000000002C7642
:10011000D888DC674F0823DFC1DFAE59E1B1B7965D
:10012000E5E3E453C63AE651997696E8E6C28426BA
:10013000EB898C9B62ED407C6FFCEFBC9C9F40F296
:10014000BAA56FA5F490055A2AF75C936B6CF96712
:100150006DC11BFCE0E40D47FEF520E6B500D0EDD7
:10016000902E0300943577050080841E080000203F
:100170004E0A000000C80C333333330F986E1283DD
:100180001141EF8D2114893BE65516CFFEE6DB18B1
:10019000D1844B381BF77C1D901DA4BBE424203276
:1001A00084725E228100C9F124ECA1E53D270000A4
:1001B00000000000005F00000007000700147F142B
:1001C0007F14242A7F2A1223130864623649552299
:1001D000500005030000001C2241000041221C00C9
:1001E00014083E081408083E0808005030000008B3
:1001F00008080808006060000020100804023E5152
:1002000049453E00427F40004261514946214145F7
:100210004B311814127F1027454545393C4A49494E
:100220003001710905033649494936064949291EF5
:100230000036360000005636000008142241001433
:100240001414141400412214080201510906324901
:1002500079413E7E1111117E7F494949363E414127
:1002600041227F4141221C7F494949417F090909B7
:10027000013E4149497A7F0808087F00417F4100DB
:100280002040413F017F081422417F404040407F91
:10029000020C027F7F0408107F3E4141413E7F09EE
:1002A0000909063E4151215E7F09192946464949FF
:1002B000493101017F01013F4040403F1F20402064
:1002C0001F3F4038403F6314081463070870080755
:1002D0006151494543007F4141000204081020005C
:1002E00041417F00040201020440404040400001BF
:1002F00002040020545454787F484444383844441D
:100300004420384444487F3854545418087E090126
:10031000020C5252523E7F0804047800447D400093
:100320002040443D007F1028440000417F40007C75
:10033000041804787C0804047838444444387C1455
:10034000141408081414187C7C0804040848545435
:100350005420043F4440203C4040207C1C2040204E
:100360001C3C4030403C44281028440C5050503C29
:100370004464544C44000836410000007F000000F3
:1003800041360800100808100878464146781124C4
:100390001FBECFEFDAE0DEBFCDBF11E0A0E0B1E0DD
:1003A000EEE9F5E302C005900D92A436B107D9F746
:1003B00028E0A4E6B1E001C01D92AD37B207E1F735
:1003C0000E94C00F0C94CD1A0C940000AF92BF9203
:1003D000CF92EF920F931F93FC014083518362836E
:1003E00073830483158326833783E08AC18AB48AA2
:1003F000A38A81E0828B108611861286138614866A
:100400001586168617861F910F91EF90CF90BF909B
:10041000AF9008956F927F928F929F92AF92BF920A
:10042000CF92DF92EF92FF920F931F93CF93DF93C0
:10043000EC018A89882309F46DC0688179818A81F9
:100440009B810E9499170E943F165B0164357105DC
:100450000CF060C06888712C660D771D16161706A3
:100460000CF058C06C817D818E819F810E9499170C
:100470000E943F16603371050CF04CC0298930E0B2
:10048000260F371F121613060CF044C027E0620E29
:10049000711C33E0759467943A95E1F78B01912CC8
:1004A000812CD12CC12C89898C151D0499F194F1D2
:1004B000F12CE12C22C0C70123E0959587952A9560
:1004C000E1F7EB89FC89E80DF91DE80FF91F408180
:1004D00050E0C701809590958770992702C0559587
:1004E00047958A95E2F74170B801C5018E0D9F1DB1
:1004F0000E94E00F8FEFE81AF80A88898E151F0412
:1005000009F0CCF62FEFC21AD20A860C971C0F5FA7
:100510001F4FC9CFDF91CF911F910F91FF90EF90A7
:10052000DF90CF90BF90AF909F908F907F906F9013
:100530000895CF92DF92EF92FF92CF93DF93609175
:100540006A0170916B0180916C0190916D01C09175
:100550008400D09185000E94751620E030E040E8CC
:1005600057E40E942C176B017C01BE0190E080E0F3
:100570000E9475169B01AC01C701B6010E945C1573
:1005800020E030E040E854E40E942C1720E034E200
:1005900044EF5AE40E94CD15DF91CF91FF90EF9088
:1005A000DF90CF90089551982798219850982098DF
:1005B000859886980895EF92FF920F931F93CF939B
:1005C000DF93CDB7DEB7C456D1090FB6F894DEBFBE
:1005D0000FBECDBF082F162F5F934F938DE191E093
:1005E0009F938F931F928AE08F93CE0101967C0197
:1005F0009F938F930E94BF19612F70E021E0A701A4
:10060000802F90E00E9484110FB6F894DEBF0FBED9
:10061000CDBFCC59DF4F0FB6F894DEBF0FBECDBFB4
:10062000DF91CF911F910F91FF90EF900895CF939D
:10063000DF93CDB7DEB7C45FD1400FB6F894DEBF0D
:100640000FBECDBFAE0141505E4FC350DE4F68813B
:100650007981CD5FD140CE0101960E94EF1921E052
:10066000AE014F5F5F4FC550DE4F68817981CB5F30
:10067000D140C750DE4F88819981C95FD1400E9427
:100680008411CC50DE4F0FB6F894DEBF0FBECDBF45
:10069000DF91CF9108952F923F924F925F926F9288
:1006A0007F928F929F92AF92BF92CF92DF92EF9202
:1006B000FF920F931F93CF93DF93CDB7DEB72C97A5
:1006C0000FB6F894DEBF0FBECDBF10926901109235
:1006D0006801109267011092660180E090E0A4E149
:1006E000B2E48093760190937701A0937801B09360
:1006F000790180E090E0A0EAB0E480937A019093E1
:100700007B01A0937C01B0937D018AE080938601F8
:1007100082E0809387018BE091E090938A0180933F
:10072000890181E08093880110927E0110927F01FF
:100730001092800110928101109282011092830127
:10074000109284011092850180918400909185001F
:100750000E9496180FE010E022242394312C9AE096
:10076000692E22E0722E512C412CA1014170552797
:100770005A8749874801012E000CAA08BB088D82C0
:100780009E82AF82B8860E94911863E070E00E945A
:10079000E6179C878B870E94911863E070E00E94A7
:1007A000E61789849A84892809F4B9C0019709F465
:1007B00067C06D817E818F8198850E9477166B015D
:1007C0007C01B201052C000C880B990B0E94771656
:1007D00040916801509169019A012F5F3F4F8090CD
:1007E0000F0190901001A0901101B0901201898228
:1007F0009A82AB82BC82DA01A759B94FEB85FC859E
:100800000F2EF5E18F2EF02D319709F464C0849EF0
:10081000F001859EF00D1124E557FE4F6083718332
:1008200082839383C482D582E682F782608A718A4A
:100830009BE0A92E91E0B92EB48AA38ABB24B3947D
:10084000B28A10861186128613861486158616863D
:100850001786BC923093690120936801829EC00183
:10086000839E900D112485579E4F29813A814B819B
:100870005C81DC0118962D933D934D935C931B97FF
:10088000BDE04B0E511CEEE44E16510409F07BCF37
:10089000FFEF2F1A3F0A065F1F4F24E02216310494
:1008A00009F061CF2C960FB6F894DEBF0FBECDBF16
:1008B000DF91CF911F910F91FF90EF90DF90CF903C
:1008C000BF90AF909F908F907F906F905F904F9070
:1008D0003F902F900895849EF001859EF00D112485
:1008E000E557FE4F6083718382839383C482D582F0
:1008F000E682F782608A718A87E0A82E81E0B82EAE
:10090000B48AA38ABB24B394B28A10861186128655
:10091000138614861586168617861C929BCF019720
:1009200009F4AECF6D817E818F8198850E94771604
:100930006B017C01B201052C000C880B990B0E9405
:10094000771640916601509167019A012F5F3F4FE2
:1009500080900F0190901001A0901101B0901201B1
:1009600089829A82AB82BC82DA01A35BB94FEB85A4
:10097000FC850F2EF5E18F2EF02D319779F1849EB5
:10098000F001859EF00D1124E451FC4F60837183CA
:1009900082839383C482D582E682F782608A718AD9
:1009A0009BE0A92E91E0B92EB48AA38ABB24B3940C
:1009B000B28A1086118612861386148615861686CC
:1009C0001786BC923093670120936601829EC00116
:1009D000839E900D112484519C4F47CF849EF0013B
:1009E000859EF00D1124E451FC4F60837183828356
:1009F0009383C482D582E682F782608A718A87E017
:100A0000A82E81E0B82EB48AA38ABB24B394B28AFC
:100A1000108611861286138614861586168617860A
:100A20001C92D0CF8F929F92AF92BF92CF92DF92C3
:100A3000EF92FF927D9B06C080916E0191E0892725
:100A400080936E0180916E01811146C0C090400676
:100A5000D0904106E0904206F0904306209138067F
:100A60003091390640913A0650913B06C701B601D4
:100A70000E945C154B015C01809238069092390609
:100A8000A0923A06B0923B0620E030E040E85FE3F7
:100A90000E94C8151816A4F48091480663E570E01A
:100AA000681B7109072E000C880B990B0E947716A2
:100AB0009B01AC01C501B4010E94271787FD0CC042
:100AC000F7FAF094F7F8F094C0924006D0924106FD
:100AD000E0924206F0924306FF90EF90DF90CF90B5
:100AE000BF90AF909F908F9008952F923F924F921A
:100AF0005F926F927F928F929F92AF92BF92CF92AE
:100B0000DF92EF92FF920F931F93CF93DF93CDB7B6
:100B1000DEB728970FB6F894DEBF0FBECDBF4D8C61
:100B20005E8C6F8C78A08AA89BA8ACA8BDA869A190
:100B30007AA18BA19CA10E9499176B017C016EA5E3
:100B400070E090E080E00E94771669837A838B835F
:100B50009C832DA423963FAC23976EA97FA988ADD3
:100B600099AD0E9499176D837E838F839887298121
:100B70003A814B815C81C701B6010E945C150E94DD
:100B80003F168B016D817E818F8198850E943F1673
:100B9000061717070CF45BC0C301B2010E94991736
:100BA0002B013C01C501B4010E9499174B015C0166
:100BB00020E030E040E85FE3C301B2010E945C1531
:100BC0000E943F168B01632D70E090E080E00E9450
:100BD0007716A50194010E945C150E943F166017CC
:100BE0007107ACF1622D70E090E080E00E94771612
:100BF000A30192010E945C1520E030E040E85FE331
:100C00000E945B150E943F168B01C501B4010E9432
:100C10003F1606171707DCF020E030E040E85FE3FE
:100C2000C701B6010E945C150E943F168B012D8101
:100C30003E814F81588569817A818B819C810E9498
:100C40005C150E943F1621E0601771070CF420E04C
:100C5000822F28960FB6F894DEBF0FBECDBFDF916E
:100C6000CF911F910F91FF90EF90DF90CF90BF90A9
:100C7000AF909F908F907F906F905F904F903F903C
:100C80002F900895CF92DF92EF92FF920F931F93D0
:100C9000CF93DF93CDB7DEB708A119A1F12CE12CDA
:100CA0008AA19BA1E816F90664F0C12CD12CC601DB
:100CB000DF91CF911F910F91FF90EF90DF90CF9038
:100CC000089568012DB73EB7255131090FB6F89444
:100CD0003EBF0FBE2DBFADB7BEB7119685E1F8017F
:100CE00001900D928A95E1F78DB79EB745970FB6A3
:100CF000F8949EBF0FBE8DBFADB7BEB7119685E10C
:100D0000FE013B9601900D928A95E1F70E947505D0
:100D10000FB6F894DEBF0FBECDBF0B5E1F4F811123
:100D2000C6CF3FEFE31AF30ABBCF0F931F93CF93C6
:100D300020E030E048E352E46091DB037091DC0393
:100D40008091DD039091DE030E94C815811129C0B6
:100D50008091170190911801019790931801809349
:100D6000170180E090E0A0E2B2E48093D703909373
:100D7000D803A093D903B093DA0380E090E0A0E811
:100D8000BFE38093DB039093DC03A093DD03B09378
:100D9000DE031092DF031092E0031092E103109241
:100DA000E203499BBAC02DB73EB7255131090FB6B2
:100DB000F8943EBF0FBE2DBFADB7BEB7119685E10B
:100DC000E6E7F1E001900D928A95E1F78DB79EB7C5
:100DD00045970FB6F8949EBF0FBE8DBFADB7BEB797
:100DE000119685E1E7EDF3E001900D928A95E1F728
:100DF0000E9475052DB73EB7265D3F4F0FB6F8949C
:100E00003EBF0FBE2DBF81114BC01F92CCE1CF93CF
:100E10008BE891E09F938F938DB79EB745970FB660
:100E2000F8949EBF0FBE8DBFADB7BEB7119685E1DA
:100E3000E7EDF3E001900D928A95E1F70E944206FA
:100E40002DB73EB7275E3F4F0FB6F8943EBF0FBE9B
:100E50002DBF892B29F51F92CF938CEE93E09F93A2
:100E60008F938DB79EB745970FB6F8949EBF0FBE70
:100E70008DBFADB7BEB7119685E1E7EDF3E0019008
:100E80000D928A95E1F70E9442062DB73EB7275E84
:100E90003F4F0FB6F8943EBF0FBE2DBF892BE9F12F
:100EA00020E030E0A9016091D7037091D8038091D0
:100EB000D9039091DA030E942717181674F520E0E1
:100EC00030E040EC50E46091DB037091DC038091F2
:100ED000DD039091DE030E945B1520E030E040E8E6
:100EE00050E40E945B1500E010E020E030EC00933D
:100EF000E3031093E4032093E5033093E60320E03B
:100F000030E040E050E40E945B156093DB03709397
:100F1000DC038093DD039093DE0380916F018823CF
:100F200009F4D4C0199902C0489BD0C08DB79EB7B0
:100F300045970FB6F8949EBF0FBE8DBFADB7BEB735
:100F4000119685E1E6E7F1E001900D928A95E1F7CF
:100F50002DB73EB7255131090FB6F8943EBF0FBEED
:100F60002DBFADB7BEB7119685E1E7EDF3E0019077
:100F70000D928A95E1F70E9475052DB73EB7265D63
:100F80003F4F0FB6F8943EBF0FBE2DBF81114CC02E
:100F90001F92CCE1CF938BE891E09F938F938DB715
:100FA0009EB745970FB6F8949EBF0FBE8DBFADB7E5
:100FB000BEB7119685E1E7EDF3E001900D928A95B9
:100FC000E1F70E9442062DB73EB7275E3F4F0FB6AE
:100FD000F8943EBF0FBE2DBF892B31F51F92CF93E2
:100FE0008CEE93E09F938F938DB79EB745970FB686
:100FF000F8949EBF0FBE8DBFADB7BEB7119685E109
:10100000E7EDF3E001900D928A95E1F70E94420628
:101010002DB73EB7275E3F4F0FB6F8943EBF0FBEC9
:101020002DBF892B09F452C020E030E0A901609166
:10103000D7037091D8038091D9039091DA030E946D
:10104000271718160CF042C01092DF031092E0032D
:101050001092E1031092E20310926F012091DF03DE
:101060003091E0034091E1035091E2036091D70396
:101070007091D8038091D9039091DA030E945C1596
:101080006093D7037093D8038093D9039093DA03C6
:101090002091E3033091E4034091E5035091E6038E
:1010A0006091DB037091DC038091DD039091DE039E
:1010B0000E945C156093DB037093DC038093DD0377
:1010C0009093DE03CF911F910F910895199B9CC0BF
:1010D0008DB79EB745970FB6F8949EBF0FBE8DBFD4
:1010E000ADB7BEB7119685E1E6E7F1E001900D924C
:1010F0008A95E1F72DB73EB7255131090FB6F8941F
:101100003EBF0FBE2DBFADB7BEB7119685E1E7ED6F
:10111000F3E001900D928A95E1F70E9475052DB7D5
:101120003EB7265D3F4F0FB6F8943EBF0FBE2DBFB2
:1011300081114BC01F92CCE1CF938BE891E09F933C
:101140008F938DB79EB745970FB6F8949EBF0FBE8D
:101150008DBFADB7BEB7119685E1E7EDF3E0019025
:101160000D928A95E1F70E9442062DB73EB7275EA1
:101170003F4F0FB6F8943EBF0FBE2DBF892B29F508
:101180001F92CF938CEE93E09F938F938DB79EB772
:1011900045970FB6F8949EBF0FBE8DBFADB7BEB7D3
:1011A000119685E1E7EDF3E001900D928A95E1F764
:1011B0000E9442062DB73EB7275E3F4F0FB6F89408
:1011C0003EBF0FBE2DBF892BF9F020E030E0A90112
:1011D0006091D7037091D8038091D9039091DA037D
:1011E0000E942717181684F480E090E0A0E0BFEB7F
:1011F0008093DF039093E003A093E103B093E203B5
:1012000081E080936F012ACF489B28CF8DB79EB78E
:1012100045970FB6F8949EBF0FBE8DBFADB7BEB752
:10122000119685E1E6E7F1E001900D928A95E1F7EC
:101230002DB73EB7255131090FB6F8943EBF0FBE0A
:101240002DBFADB7BEB7119685E1E7EDF3E0019094
:101250000D928A95E1F70E9475052DB73EB7265D80
:101260003F4F0FB6F8943EBF0FBE2DBF81114CC04B
:101270001F92CCE1CF938BE891E09F938F938DB732
:101280009EB745970FB6F8949EBF0FBE8DBFADB702
:10129000BEB7119685E1E7EDF3E001900D928A95D6
:1012A000E1F70E9442062DB73EB7275E3F4F0FB6CB
:1012B000F8943EBF0FBE2DBF892B31F51F92CF93FF
:1012C0008CEE93E09F938F938DB79EB745970FB6A3
:1012D000F8949EBF0FBE8DBFADB7BEB7119685E126
:1012E000E7EDF3E001900D928A95E1F70E94420646
:1012F0002DB73EB7275E3F4F0FB6F8943EBF0FBEE7
:101300002DBF892B09F4AACE20E030E0A90160911D
:10131000D7037091D8038091D9039091DA030E948A
:10132000271718160CF09ACE80E090E0A0E0BFE3FB
:101330005FCFCF93DF9387ED93E00E940A0288E3AB
:1013400096E00E940A02D0E0C0E0CE0185579E4F91
:101350000E940A02CE0184519C4F0E940A026596A7
:10136000CC3482E0D80789F786E791E0DF91CF910E
:101370000C940A02CF9380E880936100C1E0C0938F
:1013800061008FE30E94C5111092800085E0809378
:101390008100C0936F0078948AE090E090931801E8
:1013A00080931701109275011092740110926A01D6
:1013B00010926B0110926C0110926D0180E090E030
:1013C000A0E2B2E48093D7039093D803A093D9030B
:1013D000B093DA0340E050E060E070E44093DB0358
:1013E0005093DC036093DD037093DE0383E080930E
:1013F000E7038093E80320E031E03093EB03209390
:10140000EA03C093E9031092DF031092E003109205
:10141000E1031092E2031092E3031092E4031092AE
:10142000E5031092E6034093380650933906609323
:101430003A0670933B0640E050E06CE272E4409361
:101440003C0650933D0660933E0670933F068093A2
:10145000480682E08093490683E091E090934C0631
:1014600080934B06C0934A061092400610924106A4
:1014700010924206109243061092440610924506BE
:1014800010924606109247060E94D3028AE999E913
:10149000A9E9BEE38093400690934106A0934206DB
:1014A000B09343060E94D80F80917101882311F0F8
:1014B000CF91089521E040E251E06FE070E08CE0D0
:1014C00090E00E94841121E04AE251E06FE170E077
:1014D0008CE090E00E9484117E9B05C081E08093A7
:1014E00071010E944B030E94C50FDECF1F921FB6F1
:1014F0001F9211248F939F93AF93BF9380916A01A2
:1015000090916B01A0916C01B0916D010196A11DAC
:10151000B11D80936A0190936B01A0936C01B0930D
:101520006D01BF91AF919F918F911F901FBE1F9032
:1015300018958F929F92AF92BF92CF92DF92EF92C7
:10154000FF92CF93DF930E94D80F21E049E351E04F
:101550006AE070E08AE090E00E94841140911701F7
:10156000509118016BE08EE20E94DB0221E041E421
:1015700051E066E170E08BE090E00E9484114091C0
:1015800074015091750166E18DE20E94DB020E94B8
:1015900099024B015C010E9499026B017C01C5011B
:1015A000B4010E943F16CCE3D0E0CB01BE010E9403
:1015B000E6179F938F93C701B6010E943F16CB0198
:1015C000BE010E94E6177F936F9389E491E09F9399
:1015D0008F931F9281E28F931F928BE08F930E94D3
:1015E00017038DB79EB70A960FB6F8949EBF0FBE2D
:1015F0008DBFDF91CF91FF90EF90DF90CF90BF90A4
:10160000AF909F908F900C94C50F8F929F92AF9246
:10161000BF92CF92DF92EF92FF92CF93DF930E941F
:10162000D80F21E049E551E06AE070E084E190E004
:101630000E94841121E041E451E066E170E08BE01A
:1016400090E00E948411409174015091750166E10F
:101650008DE20E94DB020E9499024B015C010E9414
:1016600099026B017C01C501B4010E943F16CCE3D5
:10167000D0E0CB01BE010E94E6179F938F93C70174
:10168000B6010E943F16CB01BE010E94E6177F9370
:101690006F9389E491E09F938F931F9281E28F93E0
:1016A0001F928BE08F930E9417038DB79EB70A9607
:1016B0000FB6F8949EBF0FBE8DBFDF91CF91FF9004
:1016C000EF90DF90CF90BF90AF909F908F90089554
:1016D0002F923F924F925F926F927F928F929F9242
:1016E000AF92BF92CF92DF92EF92FF920F931F9330
:1016F000CF93DF930E94D80F4AE0242E312CC12CC7
:10170000D12CE12C50E4F52E00E011E0812C912C3D
:101710006CE2A62E62E4B62EC3E0D1E07AE9472E51
:1017200079E9572E652C7EE3772E809117019091F1
:101730001801181619060CF0BAC07E9B95C00E94BD
:10174000D80F80E090E0A0E2B2E48093D7039093BA
:10175000D803A093D903B093DA0380E090E0A0E827
:10176000BFE38093DB039093DC03A093DD03B0938E
:10177000DE0383E08093E7038093E80320E031E019
:101780003093EB032093EA0391E09093E9031092E6
:10179000DF031092E0031092E1031092E203109233
:1017A000E3031092E4031092E5031092E60340E095
:1017B00050E060E070E4409338065093390660933F
:1017C0003A0670933B0640E050E06CE272E44093CE
:1017D0003C0650933D0660933E0670933F0680930F
:1017E000480682E08093490623E031E030934C06BE
:1017F00020934B0690934A061092400610924106A1
:10180000109242061092430610924406109245062A
:1018100010924606109247060E94D3028AE999E97F
:10182000A9E9BEE38093400690934106A093420647
:10183000B09343060E944B038AE090E09093180116
:1018400080931701109275011092740110926A0131
:1018500010926B0110926C0110926D0180918400C6
:10186000909185000E94961880917201189BCAC0C1
:101870008111C8C081E0809372010E94990A809111
:101880007201882309F4C3C0DF91CF911F910F919A
:10189000FF90EF90DF90CF90BF90AF909F908F9090
:1018A0007F906F905F904F903F902F9008950E948F
:1018B000050B0E94C50F7D9B7FC080E090E0A0E2F9
:1018C000B2E48093D7039093D803A093D903B09345
:1018D000DA03C092DB03D092DC03E092DD03F092E6
:1018E000DE0393E09093E7039093E8031093EB03F8
:1018F0000093EA03A1E0A093E9031092DF031092A2
:10190000E0031092E1031092E2031092E3031092BD
:10191000E4031092E5031092E603C0923806D092D9
:101920003906E0923A06F0923B0680923C0690928D
:101930003D06A0923E06B0923F0690934806B2E064
:10194000B0934906D0934C06C0934B06A0934A0629
:1019500010924006109241061092420610924306E1
:1019600010924406109245061092460610924706C1
:101970000E94D30240924006509241066092420675
:10198000709243060E94D80F0E944B0330921801B8
:1019900020921701109275011092740110926A0141
:1019A00010926B0110926C0110926D018091840075
:1019B000909185000E9496187E9BB7CE0E94D80F0A
:1019C0001092710121E040E251E06FE070E08CE0A4
:1019D00090E00E94841121E04AE251E06FE170E062
:1019E0008CE090E00E9484117E9B05C081E0809392
:1019F00071010E944B030E94C50F809171018823E1
:101A000009F393CE189B3BCF811110927201E090A5
:101A10006601F0906701CCEED3E010E000E011C069
:101A2000288539854A855B85688179818A819B8192
:101A30000E945B15688379838A839B830F5F1F4FA6
:101A400065960E151F0564F3E0906801F09069013A
:101A5000CBE8D1E010E000E00E151F050CF4C3C088
:101A60002DB73EB7255131090FB6F8943EBF0FBED2
:101A70002DBFADB7BEB7119685E1E6E7F1E0019065
:101A80000D928A95E1F78DB79EB745970FB6F894FA
:101A90009EBF0FBE8DBFADB7BEB7119685E1E7ED16
:101AA000F3E001900D928A95E1F70E947505ADB7BC
:101AB000BEB79A960FB6F894BEBF0FBEADBF8823CF
:101AC00009F4A3C01092E3031092E4031092E5031B
:101AD0001092E6032DB73EB7255131090FB6F894A1
:101AE0003EBF0FBE2DBFADB7BEB7119685E1E8E38F
:101AF000F6E001900D928A95E1F78DB79EB7459774
:101B00000FB6F8949EBF0FBE8DBFADB7BEB711968E
:101B100085E1E7EDF3E001900D928A95E1F70E94EF
:101B20007505ADB7BEB79A960FB6F894BEBF0FBE97
:101B3000ADBF882309F4B9C18091170190911801B4
:101B40000296909318018093170180E090E0A0E244
:101B5000B2E48093D7039093D803A093D903B093B2
:101B6000DA031092DF031092E0031092E103109267
:101B7000E20380E090E0A0E8BFE38093DB03909372
:101B8000DC03A093DD03B093DE031092E303109215
:101B9000E4031092E5031092E60380E090E0A8ECE5
:101BA000B2E480933C0690933D06A0933E06B0932A
:101BB0003F060E9495060E9412050E949909DF9136
:101BC000CF911F910F91FF90EF90DF90CF90BF903A
:101BD000AF909F908F907F906F905F904F903F90CD
:101BE0002F900C94C50F288539854A855B856881BF
:101BF00079818A819B810E945C15688379838A83BD
:101C00009B830F5F1F4F659627CF1F92CCE1CF9329
:101C10008BE891E09F938F932DB73EB72551310903
:101C20000FB6F8943EBF0FBE2DBFADB7BEB711962D
:101C300085E1E7EDF3E001900D928A95E1F70E94CE
:101C40004206ADB7BEB759960FB6F894BEBF0FBEE9
:101C5000ADBF892B09F47AC01092E3031092E4031C
:101C60001092E5031092E603D0E0C0E015E101E038
:101C7000C12CD12C20E2E22E22E4F22E812C912CD8
:101C8000A12C30E4B32E1C9FF0011D9FF00D1124F8
:101C9000E557FE4F2DB73EB7255131090FB6F894E1
:101CA0003EBF0FBE2DBFADB7BEB71196812F0190BD
:101CB0000D928A95E1F78DB79EB745970FB6F894C8
:101CC0009EBF0FBE8DBFADB7BEB71196E7EDF3E077
:101CD000812F01900D928A95E1F70E947505ADB7AD
:101CE000BEB79A960FB6F894BEBF0FBEADBF88239D
:101CF00039F1FE01E759F94F8081811111C18091BD
:101D00001701909118010197909318018093170182
:101D10001092DF031092E0031092E1031092E203AD
:101D2000C092D703D092D803E092D903F092DA039D
:101D30008092DB039092DC03A092DD03B092DE037D
:101D40002196CC31D10509F09ECFC4CE1F92CF93FE
:101D50008CEE93E09F938F932DB73EB725513109B9
:101D60000FB6F8943EBF0FBE2DBFADB7BEB71196EC
:101D700085E1E7EDF3E001900D928A95E1F70E948D
:101D80004206ADB7BEB759960FB6F894BEBF0FBEA8
:101D9000ADBF892B09F47AC01092E3031092E403DB
:101DA0001092E5031092E603D0E0C0E015E101E0F7
:101DB000C12CD12C80E2E82E82E4F82E812C912CCB
:101DC000A12C90E4B92E1C9FF0011D9FF00D112451
:101DD000E451FC4F2DB73EB7255131090FB6F894A9
:101DE0003EBF0FBE2DBFADB7BEB71196812F01907C
:101DF0000D928A95E1F78DB79EB745970FB6F89487
:101E00009EBF0FBE8DBFADB7BEB71196E7EDF3E035
:101E1000812F01900D928A95E1F70E947505ADB76B
:101E2000BEB79A960FB6F894BEBF0FBEADBF88235B
:101E300039F1FE01E35BF94F8081811189C0809106
:101E40001701909118010197909318018093170141
:101E50001092DF031092E0031092E1031092E2036C
:101E6000C092D703D092D803E092D903F092DA035C
:101E70008092DB039092DC03A092DD03B092DE033C
:101E80002196CC31D10509F09ECF24CE80E090E0A0
:101E9000A0E0BFE38093E3039093E403A093E50302
:101EA000B093E6031092730115CE20E030E040E4D9
:101EB00050EC6091D7037091D8038091D903909131
:101EC000DA030E94C81518160CF473CE809117011E
:101ED000909118010197909318018093170180E069
:101EE00090E0A0E2B2E48093D7039093D803A0934C
:101EF000D903B093DA0380E090E0A0E8BFE38093D9
:101F0000DB039093DC03A093DD03B093DE03109218
:101F1000DF031092E0031092E1031092E20349CE36
:101F20008091730181110BC08091740190917501B2
:101F30000196909375018093740100937301109240
:101F4000E3031092E4031092E5031092E603F8CE47
:101F50008091730181110BC0809174019091750182
:101F60000196909375018093740100937301109210
:101F7000E3031092E4031092E5031092E60380CF8E
:101F80000E94BA090E94680BFDCFCF93DF9360E0F7
:101F900080E00E940212C5E8D6E0699181E00E94CB
:101FA000A71188E0CD37D807C1F7DF91CF91089509
:101FB000E5E8F6E0119288E0ED37F807D9F70895E3
:101FC00084359105F8F460337105E0F49B0153E02A
:101FD000359527955A95E1F754E5529FF001539FA7
:101FE000F00D1124E80FF91FEB57F94F808167704E
:101FF00021E030E001C0220F6A95EAF7442319F08E
:10200000282B2083089520952823FBCF2F923F92E1
:102010004F925F926F927F928F929F92AF92BF92F8
:10202000CF92DF92EF92FF920F931F93CF93DF93A4
:1020300000D000D000D00F92CDB7DEB79F838E8343
:102040007B016A011901098384179507A1F56B01CA
:1020500013C031E0C31AD1080FC0C214D30494F0E6
:102060004981B6018E819F810E94E00FE214F30442
:1020700084F72FEFC21AD20AE214F30474F72C1477
:102080003D0474F727960FB6F894DEBF0FBECDBFA0
:10209000DF91CF911F910F91FF90EF90DF90CF9044
:1020A000BF90AF909F908F907F906F905F904F9078
:1020B0003F902F9008956217730701F5AE80BF809F
:1020C00014C021E0A21AB10810C0AC14BD04D4F2AF
:1020D0004981B701C5010E94E00F8E819F818C1557
:1020E0009D057CF79FEFA91AB90A8E819F818C15F7
:1020F0009D055CF7CA14DB045CF7C4CF2E813F81D9
:102100004217530754F48F2D7101262E382E9E81CD
:102110008F815F834E83C92ED82EC6012E813F81C9
:10212000821B930B9B838A8381010E191F09B801BF
:10213000012E000C880B990B0E9477164B015C0155
:102140002A813B81B901330F880B990B0E947716C6
:102150009B01AC01C501B4010E94CD152B013C01CE
:1021600020E030E0A9010E94271787FF04C077FA1A
:10217000709477F87094812C912C5401812F881FD2
:102180008827881F282F30E03D832C832A813B81BC
:10219000121613060CF053C08E819F81C816D90603
:1021A0000CF470CF4981B7018E819F810E94E00FAE
:1021B000A3019201C501B4010E945C154B015C01B1
:1021C00020E030E040E05FE30E94271787FD06C073
:1021D000101611067CF42E143F047CF48A819B8136
:1021E0001816190634F52E813F812F5F3F4F3F832C
:1021F0002E83CCCFE214F3048CF34981B7018E8196
:102200009F810E94E00F81E090E01016110614F00B
:1022100090E080E02C813D81821B930BE80EF91E3B
:1022200020E030E040E85FE3C501B4010E945B15A7
:10223000C5CF8E819F8101979F838E83A7CF2E81EB
:102240003F812C153D050CF0ADCF1CCF5F926F92F6
:102250007F928F929F92AF92BF92CF92DF92EF9236
:10226000FF920F931F93CF93DF935B01522E405247
:10227000550B65E0649F9001659F300D1124A90105
:1022800042555E4F7A018C013C0155E0650E711C90
:1022900088248394912CF701C490511001C0C094FC
:1022A000D0E0C0E0D12CA4010C2E02C0440F551F79
:1022B0000A94E2F74C215D210C2E02C055954795FA
:1022C0000A94E2F7B5016C0F7D1FC8010E94E00F70
:1022D0002196C830D10539F74FEFE41AF40A0F5FA1
:1022E0001F4F06151705B9F6DF91CF911F910F917A
:1022F000FF90EF90DF90CF90BF90AF909F908F9026
:102300007F906F905F900895DF92EF92FF920F930E
:102310001F93CF93DF937B018A01D22ED82FC0E089
:10232000F801EC0FF11D4081411108C0DF91CF9100
:102330001F910F91FF90EF90DF9008952D2DB70121
:102340008D2F90E00E942611DB5FCF5FE9CF95B122
:102350009F7D40E2849F90011124922B95B95F9854
:1023600087E090E070E08F989B01082E02C03595C1
:1023700027950A94E2F720FF06C02E9A8F9A0197BC
:1023800090F75F9A08952E98F9CFCF93C82F579A58
:10239000249A259A269A879A2C985F9A2C9A61E219
:1023A00080E00E94A7116C2F606880E00E94A71156
:1023B00064E080E00E94A71163E180E00E94A71121
:1023C0006CE080E00E94A71160E280E00E94A7110B
:1023D0006CE080E00E94A71160E480E00E94A711F9
:1023E00060E880E0CF910C94A711CF93DF93C8EF02
:1023F000D1E060E081E00E94A7112197D1F7DF9141
:10240000CF910895CF93C82F606480E00E94A711F8
:102410006C2F606880E0CF910C94A711AFE0B0E022
:10242000E4E1F2E10C94FA176C011B014A01FC0192
:1024300017821682838181FF34C39E012F5F3F4F35
:102440003901F6019381F10193FD859193FF81910B
:102450001F01882309F4D6C2853239F493FD859192
:1024600093FF81911F01853239F4B60190E00E94FB
:102470008F1954014501E5CFF12C512C00E00032B9
:1024800038F48B3209F190F48032F9F0833209F19B
:1024900007FD34C020ED280F2A3020F506FF1BC0B1
:1024A000FAE0FF9E200D1124F22E05C08D3279F046
:1024B000803371F70160F10193FD859193FF819164
:1024C0001F018111DCCF1AC002600460F4CF0860E4
:1024D000F2CF0061F0CF3AE0539E200D1124522E2E
:1024E0000062E9CF8E3221F406FD8CC20064E3CF96
:1024F0008C3611F40068DFCF8836E9F29BEB980F39
:10250000933008F05CC00061805E06FD02C046E0CA
:10251000F42E102F1F73853609F058C0106417FF72
:102520005EC08F2D9BE39F1508F48BE344244394F6
:10253000480E27E0F40161917191819191915F01C1
:10254000042DA3010E94A1184C01F981FC87F0FF22
:1025500003C00DE2F3FF07C00BE211FD04C0012F21
:10256000047012FD00E22C852C70E22E09F457C095
:1025700001119AC2F3E0E12CF515A0F483E0E52CFB
:10258000E81A13FD08C0B60180E290E00E948F199E
:10259000EA94E110F8CF002329F0B601802F90E0F3
:1025A0000E948F193C852CEA822E20E0922E33FD6A
:1025B00004C090EB892E90E0992E107122C09BE907
:1025C000980F933008F034C10F7E9FCF863611F4F8
:1025D0001068A5CFFF2009F4A2CFFA94A0CFE7E0BE
:1025E0002F2DEF1518F427E037E0F32E412CA2CF62
:1025F00011118052B60190E00E948F198FEF881A56
:10260000980AF40184918111F3CFEE2009F432CFBE
:10261000B60180E290E00E948F19EA94F6CF17FF8E
:1026200070C0480CFC85F4FF04C08A81813309F432
:102630004A9414140CF087C028E0241510F488E0A4
:10264000482E85E090E017FF06C0C40197FE02C047
:1026500090E080E0019601110196FF2031F02F2DCE
:1026600030E02F5F3F4F820F931F5816190619F065
:1026700014F0E52CE81A812F897011F4E11068C07C
:10268000002329F0B601802F90E00E948F1913FDDE
:1026900002C0E11064C017FF7DC0840197FE02C034
:1026A00010E000E0C401841991092C016F2D70E045
:1026B000EE27FF27E61BF70BFF87EE8780169106B4
:1026C0000CF454C0401651060CF050C0F401E01B4D
:1026D000F10BE60DF71D8181015011092E853F8513
:1026E000021713070CF444C0B60190E00E948F1942
:1026F0000F3F100719F7B6018EE290E00E948F1984
:10270000DDCF16FD9ECFEF2DF0E0E815F90534F092
:102710003CEF83163FEF93060CF010683296E60DFF
:10272000F71D01C0FA94FF2019F082918033D1F394
:1027300017FF87CF442443944F0CF814190431F049
:102740002CF0F8187ECF442443947BCFF12C79CF22
:10275000B60180E290E00E948F19EA948FCFB60113
:1027600080E390E00E948F19EA9493CF80E3B4CF86
:102770008016910641F49A81963350F4953319F4FA
:102780009C8594FF05C0B60190E00E948F193DCF53
:1027900081E3F9CF8A81813319F0EC85EF7EEC87F4
:1027A000B60190E00E948F19FF20A9F0B6018EE2D9
:1027B00090E00E948F19F394F394E2E001E00E0F91
:1027C000E60DF72DF11D8081B60190E00E948F1972
:1027D000E02F0F11F3CF85E690E014FF02C085E4EF
:1027E00090E0B6010E948F1997FC06C081149104F5
:1027F000C1F4FC85F4FF15C09194819491088DE299
:10280000B60190E00E948F1980E33AE083169104AC
:1028100054F4B60190E00E948F19B601C401C0962D
:10282000B4CF8BE2EDCF8F5F2AE0821A9108EDCF13
:102830008336B1F0833759F1833509F055C0F4017F
:10284000819091905F016F2D70E006FD02C06FEFE7
:102850007FEFC4010E9479199D878C8700680DC0A5
:10286000540182E0A80EB11CF4018081898321E02B
:1028700030E03D872C8743010F7703FD06C02C8590
:102880003D855216130609F090F4E52C28C0F4019A
:10289000819091905F016F2D70E006FD02C06FEF97
:1028A0007FEFC4010E9484199D878C87E5CFB60114
:1028B00080E290E00E948F195A94E1CFF40107FD65
:1028C000859107FF81914F01B60190E00E948F1919
:1028D000E110EA948C859D8501979D878C87EC8516
:1028E000FD85EF2B59F791CE843619F0893609F022
:1028F0006EC0F40107FF63C0619171918191919164
:102900005F01102F1F7697FF08C0909580957095F6
:1029100061957F4F8F4F9F4F10682AE030E0A301F1
:102920000E940C1A882E8618982C012F16FF0AC0B8
:102930000E7F8F1438F414FF04C012FD02C0012F63
:102940000E7E9F2C04FF85C0FE01E80DF11D8081E5
:10295000803309F077C0097EF02FF870EF2E03FD69
:1029600087C000FF81C0F82C951410F4F50CF918FD
:1029700004FF84C0B60180E390E00E948F1902FF3B
:1029800009C088E790E001FF02C088E590E0B60149
:102990000E948F198F1408F47DC08A94082D10E0CE
:1029A0000F5F1F4F060D171DF80182918F01B601B1
:1029B00090E00E948F1906151705B1F726CE619198
:1029C00071915F01072E000C880B990B9ACF102F85
:1029D000853791F41F7E2AE030E0F40117FF2CC008
:1029E00061917191819191915F01A3010E940C1AF3
:1029F000882E86181F7798CF197F8F36D1F048F42C
:102A0000883591F0F601868197812F96E2E10C944A
:102A10001618803739F08837A9F714FD146020E1C3
:102A200030E0DBCF1061F9CF04FD166020E132E029
:102A3000D4CF28E030E0D1CF619171915F0190E077
:102A400080E0D3CF02FD02C0939486CF93949394F9
:102A500083CF802F867809F47FCFF6CFB60180E24E
:102A600090E00E948F1993949514C0F3E12C80CFCD
:102A7000E52CE918951408F47BCFF8CF802F8678E1
:102A800009F488CF8BE201FF80E207FD8DE2B601F9
:102A900090E07ECFB60180E390E00E948F19FA9417
:102AA00079CF8FEF9FEFB1CF24E0E12C251508F00F
:102AB00074CD84E064CD5058BB27AA270E947315BB
:102AC0000C94ED160E94DF1638F00E94E61620F0F6
:102AD00039F49F3F19F426F40C94DC160EF4E095BB
:102AE000E7FB0C94D616E92F0E94FE1658F3BA178E
:102AF000620773078407950720F079F4A6F50C9414
:102B000020170EF4E0950B2EBA2FA02D0B01B90162
:102B100090010C01CA01A0011124FF27591B99F053
:102B2000593F50F4503E68F11A16F040A22F232F5F
:102B3000342F4427585FF3CF469537952795A795AF
:102B4000F0405395C9F77EF41F16BA0B620B730B56
:102B5000840BBAF09150A1F0FF0FBB1F661F771FC7
:102B6000881FC2F70EC0BA0F621F731F841F48F47C
:102B7000879577956795B795F7959E3F08F0B0CF05
:102B80009395880F08F09927EE0F979587950895EC
:102B90000E94B21608F481E008950E94E1150C9499
:102BA000ED160E94E61658F00E94DF1640F029F458
:102BB0005F3F29F00C94D61651110C9421170C94F8
:102BC000DC160E94FE1668F39923B1F3552391F3A6
:102BD000951B550BBB27AA2762177307840738F08C
:102BE0009F5F5F4F220F331F441FAA1FA9F335D0E9
:102BF0000E2E3AF0E0E832D091505040E695001C9D
:102C0000CAF72BD0FE2F29D0660F771F881FBB1F56
:102C1000261737074807AB07B0E809F0BB0B802D34
:102C2000BF01FF2793585F4F3AF09E3F510578F060
:102C30000C94D6160C9421175F3FE4F3983ED4F31E
:102C4000869577956795B795F7959F5FC9F7880F34
:102C5000911D9695879597F90895E1E0660F771F86
:102C6000881FBB1F621773078407BA0720F0621B17
:102C7000730B840BBA0BEE1F88F7E09508950E9442
:102C800046166894B1110C94211708950E940617F6
:102C900088F09F5798F0B92F9927B751B0F0E1F01D
:102CA000660F771F881F991F1AF0BA95C9F714C0CD
:102CB000B13091F00E942017B1E008950C942017D4
:102CC000672F782F8827B85F39F0B93FCCF3869506
:102CD00077956795B395D9F73EF490958095709563
:102CE00061957F4F8F4F9F4F0895E89409C097FBE0
:102CF0003EF490958095709561957F4F8F4F9F4FD3
:102D00009923A9F0F92F96E9BB279395F695879516
:102D100077956795B795F111F8CFFAF4BB0F11F4D9
:102D200060FF1BC06F5F7F4F8F4F9F4F16C0882380
:102D300011F096E911C0772321F09EE8872F762FB6
:102D400005C0662371F096E8862F70E060E02AF0F7
:102D50009A95660F771F881FDAF7880F96958795E3
:102D600097F90895990F0008550FAA0BE0E8FEEFB8
:102D700016161706E807F907C0F012161306E4073F
:102D8000F50798F0621B730B840B950B39F40A2638
:102D900061F0232B242B252B21F408950A2609F416
:102DA000A140A6958FEF811D811D089597F99F671A
:102DB00080E870E060E008959FEF80EC08950024C3
:102DC0000A941616170618060906089500240A9490
:102DD00012161306140605060895092E0394000C16
:102DE00011F4882352F0BB0F40F4BF2B11F460FFA5
:102DF00004C06F5F7F4F8F4F9F4F089557FD9058CE
:102E0000440F551F59F05F3F71F04795880F97FBAE
:102E1000991F61F09F3F79F0879508951216130668
:102E20001406551FF2CF4695F1DF08C01616170697
:102E30001806991FF1CF86957105610508940895CC
:102E4000E894BB2766277727CB0197F908950E945E
:102E5000B21608F48FEF08950E943F170C94ED16F8
:102E60000E94DF1638F00E94E61620F0952311F03C
:102E70000C94D6160C94DC1611240C9421170E9485
:102E8000FE1670F3959FC1F3950F50E0551F629F9A
:102E9000F001729FBB27F00DB11D639FAA27F00DB3
:102EA000B11DAA1F649F6627B00DA11D661F829FDA
:102EB0002227B00DA11D621F739FB00DA11D621FBF
:102EC000839FA00D611D221F749F3327A00D611DDC
:102ED000231F849F600D211D822F762F6A2F1124BE
:102EE0009F5750409AF0F1F088234AF0EE0FFF1FF1
:102EF000BB1F661F771F881F91505040A9F79E3F48
:102F0000510580F00C94D6160C9421175F3FE4F322
:102F1000983ED4F3869577956795B795F795E7959D
:102F20009F5FC1F7FE2B880F911D9695879597F9A6
:102F300008950E940617E8F09E37E8F09639B8F435
:102F40009E3848F4672F782F8827985FF9CF8695A9
:102F50007795679593959539D0F3B62FB1706B0F30
:102F6000711D811D20F487957795679593950C9435
:102F7000BD170C94D8170C942117882371F477236C
:102F800021F09850872B762F07C0662311F49927DC
:102F90000DC09051862B70E060E02AF09A95660F84
:102FA000771F881FDAF7880F9695879597F9089508
:102FB0009F3F31F0915020F4879577956795B795AD
:102FC000880F911D9695879597F9089597FB072E81
:102FD00016F4009407D077FD09D00E94311807FC41
:102FE00005D03EF4909581959F4F08957095619519
:102FF0007F4F08952F923F924F925F926F927F92F0
:103000008F929F92AF92BF92CF92DF92EF92FF92F8
:103010000F931F93CF93DF93CDB7DEB7CA1BDB0BA4
:103020000FB6F894DEBF0FBECDBF09942A88398849
:1030300048885F846E847D848C849B84AA84B98450
:10304000C884DF80EE80FD800C811B81AA81B9815C
:10305000CE0FD11D0FB6F894DEBF0FBECDBFED0170
:103060000895AA1BBB1B51E107C0AA1FBB1FA617CF
:10307000B70710F0A61BB70B881F991F5A95A9F721
:1030800080959095BC01CD0108958F929F92AF924B
:10309000BF92CF92DF92EF92FF92CF93DF93EC013A
:1030A000688179818A819B8161157105810591050E
:1030B00021F464E279ED8BE597E02DE133EF41E017
:1030C00050E00E946A1A49015A019B01AC01A7EA2B
:1030D000B1E40E94891A6B017C01ACEEB4EFA5014A
:1030E00094010E94971ADC01CB018C0D9D1DAE1D31
:1030F000BF1DB7FF03C00197A109B048888399831A
:10310000AA83BB839F77DF91CF91FF90EF90DF90F1
:10311000CF90BF90AF909F908F9008950E944518D8
:10312000089589E191E00E9445180895B0E0A0E07B
:103130008093190190931A01A0931B01B0931C0175
:103140000895283008F027E03327DA01990F311D60
:1031500087FD916000966105710539F432602E5F3C
:103160003D9330E32A95E1F708959F3F30F0803892
:103170007105610509F03C5F3C5F3D93913008F0BB
:103180008068911DDF93CF931F930F93FF92EF926F
:10319000192F987F9695E92F96959695E90FFF2719
:1031A000E25FFE4F99273327EE24FF24A701E701B2
:1031B00005900894079428F4360FE71EF81E491F5F
:1031C000511D660F771F881F991F0694A1F7059060
:1031D000079428F4E70EF81E491F561FC11D770FEC
:1031E000881F991F661F0694A1F70590079428F47D
:1031F000F80E491F561FC71FD11D880F991F661F44
:10320000771F0694A1F70590079420F4490F561FE5
:10321000C71FD81F990F661F771F881F0694A9F72D
:1032200084911095177041F0D695C795579547959D
:10323000F794E7941A95C1F7E4EBF0E068941590E1
:10324000159135916591959105907FE27395E118FF
:10325000F10A430B560BC90BD009C0F7E10CF11E64
:10326000431F561FC91FD01D7EF4703311F48A9579
:10327000E6CFE894015030F0080F0AF40027021757
:1032800008F4202F2395022F7A3328F079E37D93D9
:103290002A95E9F710C07D932A9589F606949795AB
:1032A0006795379517951794E118F10A430B560B5C
:1032B000C90BD00998F023957E9173957A3308F065
:1032C00070E37C932013B8F77E9170617D9330F0AA
:1032D000839571E37D9370E32A95E1F71124EF90D4
:1032E000FF900F911F91CF91DF91992787FD9095C6
:1032F0000895FC010590615070400110D8F7809549
:1033000090958E0F9F1F0895FC01615070400190B1
:103310000110D8F7809590958E0F9F1F08950F93F9
:103320001F93CF93DF93182F092FEB018B8181FD22
:1033300009C01FEF0FEF812F902FDF91CF911F91C9
:103340000F91089582FF14C02E813F818C819D8151
:10335000281739073CF4E881F981CF010196998358
:10336000888310838E819F8101969F838E83E3CF14
:10337000E885F985812F0995892BA1F3DACFAEE095
:10338000B0E0E5ECF9E10C9408180D891E898F89ED
:10339000988D26E02C831A83098397FF02C080E072
:1033A00090E801979E838D83AE01455E5F4F698DE6
:1033B0007A8DCE0101960E940E124D815E8157FDDD
:1033C0000AC02F813885421753070CF49A01020F67
:1033D000131FF80110822E96E4E00C942418AEE03E
:1033E000B0E0E5EFF9E10C9408188C0186E08C83DD
:1033F0001A8309838FEF9FE79E838D83CE01019609
:103400000E940E122F813885020F131FF8011082BF
:103410002E96E4E00C942418FA01AA27283051F1E2
:10342000203181F1E8946F936E7F6E5F7F4F8F4FF5
:103430009F4FAF4FB1E03ED0B4E03CD0670F781F54
:10344000891F9A1FA11D680F791F8A1F911DA11D39
:103450006A0F711D811D911DA11D20D009F4689472
:103460003F912AE0269F11243019305D3193DEF61A
:10347000CF010895462F4770405D4193B3E00FD0D0
:10348000C9F7F6CF462F4F70405D4A3318F0495DBB
:1034900031FD4052419302D0A9F7EACFB4E0A6959E
:1034A0009795879577956795BA95C9F700976105C0
:1034B000710508959B01AC010A2E06945795479516
:1034C00037952795BA95C9F7620F731F841F951F0B
:1034D000A01D0895052E97FB1EF400940E94811AEA
:1034E00057FD07D00E949C1A07FC03D04EF40C94A1
:1034F000811A50954095309521953F4F4F4F5F4F22
:10350000089590958095709561957F4F8F4F9F4F4F
:1035100008950E94BE1AA59F900DB49F900DA49F80
:10352000800D911D11240895B7FF0C94891A0E94F3
:10353000891A821B930B0895A1E21A2EAA1BBB1BAA
:10354000FD010DC0AA1FBB1FEE1FFF1FA217B3076F
:10355000E407F50720F0A21BB30BE40BF50B661F85
:10356000771F881F991F1A9469F760957095809549
:1035700090959B01AC01BD01CF010895A29FB001C0
:10358000B39FC001A39F700D811D1124911DB29F97
:0E359000700D811D1124911D0895F894FFCF38
:10359E00E040A0A0E00000AA80FFC0FFC0FFC0CDA9
:1035AE00CC4C3E0000003F0A0001000000256400E4
:1035BE006E3130323239383235004C657669204200
:1035CE007265616B77656C6C004C697665733A2039
:1035DE000053636F72653A200054696D653A202579
:1035EE003032643A253032640047414D45204F5603
:0435FE004552210011
:00000001FF
