:100000000C94C7010C94E4010C94E4010C94E401F9
:100010000C94E4010C94E4010C94E4010C94E401CC
:100020000C94E4010C94E4010C94E4010C94E401BC
:100030000C94E4010C94E4010C94E4010C94E401AC
:100040000C94E4010C94E4010C94E4010C94E4019C
:100050000C94E4010C94E4010C94E4010C94E4018C
:100060000C94E4010C94E4010C94E4010C94E4017C
:100070000C94E4010C94E4010C94E4010C94E4016C
:100080000C94E4010C94E4010C94E4010C940F0230
:100090000C94E4010C94E4010C94E4010C94E4014C
:1000A0000C94E4010C94E4010C94E4016E616E0084
:1000B000696E660000407A10F35A00A0724E18096B
:1000C0000010A5D4E80000E87648170000E40B54BF
:1000D000020000CA9A3B000000E1F505000080968E
:1000E0009800000040420F000000A08601000000C0
:1000F000102700000000E80300000000640000007A
:1001000000000A00000000000100000000002C7642
:10011000D888DC674F0823DFC1DFAE59E1B1B7965D
:10012000E5E3E453C63AE651997696E8E6C28426BA
:10013000EB898C9B62ED407C6FFCEFBC9C9F40F296
:10014000BAA56FA5F490055A2AF75C936B6CF96712
:100150006DC11BFCE0E40D47FEF520E6B500D0EDD7
:10016000902E0300943577050080841E080000203F
:100170004E0A000000C80C333333330F986E1283DD
:100180001141EF8D2114893BE65516CFFEE6DB18B1
:10019000D1844B381BF77C1D901DA4BBE424203276
:1001A00084725E228100C9F124ECA1E53D270000A4
:1001B00000000000005F00000007000700147F142B
:1001C0007F14242A7F2A1223130864623649552299
:1001D000500005030000001C2241000041221C00C9
:1001E00014083E081408083E0808005030000008B3
:1001F00008080808006060000020100804023E5152
:1002000049453E00427F40004261514946214145F7
:100210004B311814127F1027454545393C4A49494E
:100220003001710905033649494936064949291EF5
:100230000036360000005636000008142241001433
:100240001414141400412214080201510906324901
:1002500079413E7E1111117E7F494949363E414127
:1002600041227F4141221C7F494949417F090909B7
:10027000013E4149497A7F0808087F00417F4100DB
:100280002040413F017F081422417F404040407F91
:10029000020C027F7F0408107F3E4141413E7F09EE
:1002A0000909063E4151215E7F09192946464949FF
:1002B000493101017F01013F4040403F1F20402064
:1002C0001F3F4038403F6314081463070870080755
:1002D0006151494543007F4141000204081020005C
:1002E00041417F00040201020440404040400001BF
:1002F00002040020545454787F484444383844441D
:100300004420384444487F3854545418087E090126
:10031000020C5252523E7F0804047800447D400093
:100320002040443D007F1028440000417F40007C75
:10033000041804787C0804047838444444387C1455
:10034000141408081414187C7C0804040848545435
:100350005420043F4440203C4040207C1C2040204E
:100360001C3C4030403C44281028440C5050503C29
:100370004464544C44000836410000007F000000F3
:1003800041360800100808100878464146781124C4
:100390001FBECFEFDAE0DEBFCDBF11E0A0E0B1E0DD
:1003A000E6EDF8E102C005900D92AA32B107D9F747
:1003B00023E0AAE2B1E001C01D92AA33B207E1F73F
:1003C0000E94E8020C94690C0C940000CF93E1E6C3
:1003D000F0E080E88083C1E0C0838FE30E94ED04F9
:1003E0000E941D051092900085E080939100C093BB
:1003F0007100789421E040E051E066E170E087E12F
:1004000090E00E94AC0421E04AE051E060E270E03C
:1004100087E190E00E94AC04CF910C94ED021F9212
:100420001FB61F9211248F939F93AF93BF93809118
:100430002A0190912B01A0912C01B0912D010196E0
:10044000A11DB11D80932A0190932B01A0932C0133
:10045000B0932D01BF91AF919F918F911F901FBEBF
:100460001F901895CF92DF92EF92FF92CF93DF9378
:1004700060912A0170912B0180912C0190912D01A6
:10048000C0919400D09195000E94620920E030E074
:1004900040E857E40E94F5096B017C01BE0190E041
:1004A00080E00E9462099B01AC01C701B6010E9475
:1004B000840820E030E040E854E40E94F50920E0A0
:1004C00034E244EF5AE40E94F008DF91CF91FF90AC
:1004D000EF90DF90CF9008950F93CF93DF93D82FB5
:1004E000C62F5F934F933F932F938FE091E09F939D
:1004F0008F931F9284E18F938EE291E09F938F936D
:100500000E94DB0B8DB79EB70A960FB6F8949EBF7C
:100510000FBE8DBF6C2F70E0202F4EE251E08D2F6B
:1005200090E0DF91CF910F910C94AC041F93CF9387
:10053000DF93D82FC62F122F5F934F9382E191E064
:100540009F938F931F9284E18F938EE291E09F930C
:100550008F930E94DB0B8DB79EB708960FB6F89469
:100560009EBF0FBE8DBF6C2F70E0212F4EE251E079
:100570008D2F90E0DF91CF911F910C94AC04CF921E
:10058000DF92EF92FF920F930E9432026B017C0187
:1005900021E045E151E070E060E090E080E00E9401
:1005A000AC0421E04DE151E06AE070E08AE090E0C7
:1005B0000E94AC0401E0A70196016AE08AE00E9473
:1005C0006C020F91FF90EF90DF90CF900C94ED02B2
:1005D0000E94E6010E94BF02FDCFCF93DF9360E04F
:1005E00080E00E942A05C2E4D1E0699181E00E9486
:1005F000CF0483E0CA33D807C1F7DF91CF910895C4
:10060000E2E4F1E0119283E0EA33F807D9F70895C4
:1006100084359105F8F460337105E0F49B0153E0F3
:10062000359527955A95E1F754E5529FF001539F70
:10063000F00D1124E80FF91FEE5BFE4F808167700B
:1006400021E030E001C0220F6A95EAF7442319F057
:10065000282B2083089520952823FBCF2F923F92AB
:100660004F925F926F927F928F929F92AF92BF92C2
:10067000CF92DF92EF92FF920F931F93CF93DF936E
:1006800000D000D000D00F92CDB7DEB79F838E830D
:100690007B016A011901098384179507A1F56B0194
:1006A00013C031E0C31AD1080FC0C214D30494F0B0
:1006B0004981B6018E819F810E940803E214F304F0
:1006C00084F72FEFC21AD20AE214F30474F72C1441
:1006D0003D0474F727960FB6F894DEBF0FBECDBF6A
:1006E000DF91CF911F910F91FF90EF90DF90CF900E
:1006F000BF90AF909F908F907F906F905F904F9042
:100700003F902F9008956217730701F5AE80BF8068
:1007100014C021E0A21AB10810C0AC14BD04D4F278
:100720004981B701C5010E9408038E819F818C1504
:100730009D057CF79FEFA91AB90A8E819F818C15C0
:100740009D055CF7CA14DB045CF7C4CF2E813F81A2
:100750004217530754F48F2D7101262E382E9E8197
:100760008F815F834E83C92ED82EC6012E813F8193
:10077000821B930B9B838A8381010E191F09B80189
:10078000012E000C880B990B0E9464094B015C013F
:100790002A813B81B901330F880B990B0E946409B0
:1007A0009B01AC01C501B4010E94F0082B013C0182
:1007B00020E030E0A9010E94F00987FF04C077FA29
:1007C000709477F87094812C912C5401812F881F9C
:1007D0008827881F282F30E03D832C832A813B8186
:1007E000121613060CF053C08E819F81C816D906CD
:1007F0000CF470CF4981B7018E819F810E9408035C
:10080000A3019201C501B4010E9484084B015C015F
:1008100020E030E040E05FE30E94F00987FD06C081
:10082000101611067CF42E143F047CF48A819B81FF
:100830001816190634F52E813F812F5F3F4F3F83F5
:100840002E83CCCFE214F3048CF34981B7018E815F
:100850009F810E94080381E090E01016110614F0B9
:1008600090E080E02C813D81821B930BE80EF91E05
:1008700020E030E040E85FE3C501B4010E94830856
:10088000C5CF8E819F8101979F838E83A7CF2E81B5
:100890003F812C153D050CF0ADCF1CCF5F926F92C0
:1008A0007F928F929F92AF92BF92CF92DF92EF9200
:1008B000FF920F931F93CF93DF935B01522E405211
:1008C000550B65E0649F9001659F300D1124A901CF
:1008D00042555E4F7A018C013C0155E0650E711C5A
:1008E00088248394912CF701C490511001C0C094C6
:1008F000D0E0C0E0D12CA4010C2E02C0440F551F43
:100900000A94E2F74C215D210C2E02C055954795C3
:100910000A94E2F7B5016C0F7D1FC8010E9408031D
:100920002196C830D10539F74FEFE41AF40A0F5F6A
:100930001F4F06151705B9F6DF91CF911F910F9143
:10094000FF90EF90DF90CF90BF90AF909F908F90EF
:100950007F906F905F900895DF92EF92FF920F93D8
:100960001F93CF93DF937B018A01D22ED82FC0E053
:10097000F801EC0FF11D4081411108C0DF91CF91CA
:100980001F910F91FF90EF90DF9008952D2DB701EB
:100990008D2F90E00E944E04DB5FCF5FE9CF95B1D1
:1009A0009F7D40E2849F90011124922B95B95F981E
:1009B00087E090E070E08F989B01082E02C035958B
:1009C00027950A94E2F720FF06C02E9A8F9A019786
:1009D00090F75F9A08952E98F9CFCF93C82F579A22
:1009E000249A259A269A879A2C985F9A2C9A61E2E3
:1009F00080E00E94CF046C2F606880E00E94CF04EA
:100A000064E080E00E94CF0463E180E00E94CF04B4
:100A10006CE080E00E94CF0460E280E00E94CF049E
:100A20006CE080E00E94CF0460E480E00E94CF048C
:100A300060E880E0CF910C94CF04CF93DF93C8EFB0
:100A4000D1E060E081E00E94CF042197D1F7DF91EF
:100A5000CF910895CF93C82F606480E00E94CF04A7
:100A60006C2F606880E0CF910C94CF04AFE0B0E0D1
:100A7000ECE3F5E00C94860A6C011B014A01FC01D1
:100A800017821682838181FF34C39E012F5F3F4FFF
:100A90003901F6019381F10193FD859193FF8191D5
:100AA0001F01882309F4D6C2853239F493FD85915C
:100AB00093FF81911F01853239F4B60190E00E94C5
:100AC000AB0B54014501E5CFF12C512C00E0003275
:100AD00038F48B3209F190F48032F9F0833209F165
:100AE00007FD34C020ED280F2A3020F506FF1BC07B
:100AF000FAE0FF9E200D1124F22E05C08D3279F010
:100B0000803371F70160F10193FD859193FF81912D
:100B10001F018111DCCF1AC002600460F4CF0860AD
:100B2000F2CF0061F0CF3AE0539E200D1124522EF7
:100B30000062E9CF8E3221F406FD8CC20064E3CF5F
:100B40008C3611F40068DFCF8836E9F29BEB980F02
:100B5000933008F05CC00061805E06FD02C046E094
:100B6000F42E102F1F73853609F058C0106417FF3C
:100B70005EC08F2D9BE39F1508F48BE344244394C0
:100B8000480E27E0F40161917191819191915F018B
:100B9000042DA3010E94BD0A4C01F981FC87F0FFDE
:100BA00003C00DE2F3FF07C00BE211FD04C0012FEB
:100BB000047012FD00E22C852C70E22E09F457C05F
:100BC00001119AC2F3E0E12CF515A0F483E0E52CC5
:100BD000E81A13FD08C0B60180E290E00E94AB0B5A
:100BE000EA94E110F8CF002329F0B601802F90E0BD
:100BF0000E94AB0B3C852CEA822E20E0922E33FD26
:100C000004C090EB892E90E0992E107122C09BE9D0
:100C1000980F933008F034C10F7E9FCF863611F4C1
:100C20001068A5CFFF2009F4A2CFFA94A0CFE7E087
:100C30002F2DEF1518F427E037E0F32E412CA2CF2B
:100C400011118052B60190E00E94AB0B8FEF881A11
:100C5000980AF40184918111F3CFEE2009F432CF88
:100C6000B60180E290E00E94AB0BEA94F6CF17FF4A
:100C700070C0480CFC85F4FF04C08A81813309F4FC
:100C80004A9414140CF087C028E0241510F488E06E
:100C9000482E85E090E017FF06C0C40197FE02C011
:100CA00090E080E0019601110196FF2031F02F2D98
:100CB00030E02F5F3F4F820F931F5816190619F02F
:100CC00014F0E52CE81A812F897011F4E11068C046
:100CD000002329F0B601802F90E00E94AB0B13FD9A
:100CE00002C0E11064C017FF7DC0840197FE02C0FE
:100CF00010E000E0C401841991092C016F2D70E00F
:100D0000EE27FF27E61BF70BFF87EE87801691067D
:100D10000CF454C0401651060CF050C0F401E01B16
:100D2000F10BE60DF71D8181015011092E853F85DC
:100D3000021713070CF444C0B60190E00E94AB0BFD
:100D40000F3F100719F7B6018EE290E00E94AB0B3F
:100D5000DDCF16FD9ECFEF2DF0E0E815F90534F05C
:100D60003CEF83163FEF93060CF010683296E60DC9
:100D7000F71D01C0FA94FF2019F082918033D1F35E
:100D800017FF87CF442443944F0CF814190431F013
:100D90002CF0F8187ECF442443947BCFF12C79CFEC
:100DA000B60180E290E00E94AB0BEA948FCFB601CF
:100DB00080E390E00E94AB0BEA9493CF80E3B4CF42
:100DC0008016910641F49A81963350F4953319F4C4
:100DD0009C8594FF05C0B60190E00E94AB0B3DCF0F
:100DE00081E3F9CF8A81813319F0EC85EF7EEC87BE
:100DF000B60190E00E94AB0BFF20A9F0B6018EE295
:100E000090E00E94AB0BF394F394E2E001E00E0F4C
:100E1000E60DF72DF11D8081B60190E00E94AB0B2D
:100E2000E02F0F11F3CF85E690E014FF02C085E4B8
:100E300090E0B6010E94AB0B97FC06C081149104B0
:100E4000C1F4FC85F4FF15C09194819491088DE262
:100E5000B60190E00E94AB0B80E33AE08316910468
:100E600054F4B60190E00E94AB0BB601C401C096E9
:100E7000B4CF8BE2EDCF8F5F2AE0821A9108EDCFDD
:100E80008336B1F0833759F1833509F055C0F40149
:100E9000819091905F016F2D70E006FD02C06FEFB1
:100EA0007FEFC4010E94950B9D878C8700680DC061
:100EB000540182E0A80EB11CF4018081898321E0F5
:100EC00030E03D872C8743010F7703FD06C02C855A
:100ED0003D855216130609F090F4E52C28C0F40164
:100EE000819091905F016F2D70E006FD02C06FEF61
:100EF0007FEFC4010E94A00B9D878C87E5CFB601D0
:100F000080E290E00E94AB0B5A94E1CFF40107FD20
:100F1000859107FF81914F01B60190E00E94AB0BD4
:100F2000E110EA948C859D8501979D878C87EC85DF
:100F3000FD85EF2B59F791CE843619F0893609F0EB
:100F40006EC0F40107FF63C061917191819191912D
:100F50005F01102F1F7697FF08C0909580957095C0
:100F600061957F4F8F4F9F4F10682AE030E0A301BB
:100F70000E940B0C882E8618982C012F16FF0AC091
:100F80000E7F8F1438F414FF04C012FD02C0012F2D
:100F90000E7E9F2C04FF85C0FE01E80DF11D8081AF
:100FA000803309F077C0097EF02FF870EF2E03FD33
:100FB00087C000FF81C0F82C951410F4F50CF918C7
:100FC00004FF84C0B60180E390E00E94AB0B02FFF7
:100FD00009C088E790E001FF02C088E590E0B60113
:100FE0000E94AB0B8F1408F47DC08A94082D10E08A
:100FF0000F5F1F4F060D171DF80182918F01B6017B
:1010000090E00E94AB0B06151705B1F726CE619153
:1010100071915F01072E000C880B990B9ACF102F4E
:10102000853791F41F7E2AE030E0F40117FF2CC0D1
:1010300061917191819191915F01A3010E940B0CCB
:10104000882E86181F7798CF197F8F36D1F048F4F5
:10105000883591F0F601868197812F96E2E10C9414
:10106000A20A803739F08837A9F714FD146020E10F
:1010700030E0DBCF1061F9CF04FD166020E132E0F3
:10108000D4CF28E030E0D1CF619171915F0190E041
:1010900080E0D3CF02FD02C0939486CF93949394C3
:1010A00083CF802F867809F47FCFF6CFB60180E218
:1010B00090E00E94AB0B93949514C0F3E12C80CF89
:1010C000E52CE918951408F47BCFF8CF802F8678AB
:1010D00009F488CF8BE201FF80E207FD8DE2B601C3
:1010E00090E07ECFB60180E390E00E94AB0BFA94D3
:1010F00079CF8FEF9FEFB1CF24E0E12C251508F0D9
:1011000074CD84E064CD5058BB27AA270E949B0869
:101110000C94B6090E94A80938F00E94AF0920F08B
:1011200039F49F3F19F426F40C94A5090EF4E095C8
:10113000E7FB0C949F09E92F0E94C70958F3BA17DF
:10114000620773078407950720F079F4A6F50C94DD
:10115000E9090EF4E0950B2EBA2FA02D0B01B90171
:1011600090010C01CA01A0011124FF27591B99F01D
:10117000593F50F4503E68F11A16F040A22F232F29
:10118000342F4427585FF3CF469537952795A79579
:10119000F0405395C9F77EF41F16BA0B620B730B20
:1011A000840BBAF09150A1F0FF0FBB1F661F771F91
:1011B000881FC2F70EC0BA0F621F731F841F48F446
:1011C000879577956795B795F7959E3F08F0B0CFCF
:1011D0009395880F08F09927EE0F979587950895B6
:1011E0000E9404090C94B6090E94AF0958F00E94AD
:1011F000A80940F029F45F3F29F00C949F09511190
:101200000C94EA090C94A5090E94C70968F3992374
:10121000B1F3552391F3951B550BBB27AA276217F2
:101220007307840738F09F5F5F4F220F331F441FFF
:10123000AA1FA9F335D00E2E3AF0E0E832D0915033
:101240005040E695001CCAF72BD0FE2F29D0660F20
:10125000771F881FBB1F261737074807AB07B0E863
:1012600009F0BB0B802DBF01FF2793585F4F3AF069
:101270009E3F510578F00C949F090C94EA095F3F5A
:10128000E4F3983ED4F3869577956795B795F795EF
:101290009F5FC9F7880F911D9695879597F90895D7
:1012A000E1E0660F771F881FBB1F62177307840773
:1012B000BA0720F0621B730B840BBA0BEE1F88F782
:1012C000E0950895E89409C097FB3EF490958095C9
:1012D000709561957F4F8F4F9F4F9923A9F0F92FFC
:1012E00096E9BB279395F695879577956795B7957A
:1012F000F111F8CFFAF4BB0F11F460FF1BC06F5F60
:101300007F4F8F4F9F4F16C0882311F096E911C071
:10131000772321F09EE8872F762F05C0662371F092
:1013200096E8862F70E060E02AF09A95660F771FA6
:10133000881FDAF7880F9695879597F9089597F99A
:101340009F6780E870E060E008959FEF80EC08956B
:1013500000240A9416161706180609060895002494
:101360000A9412161306140605060895092E03940E
:10137000000C11F4882352F0BB0F40F4BF2B11F482
:1013800060FF04C06F5F7F4F8F4F9F4F089557FDE1
:101390009058440F551F59F05F3F71F04795880FE3
:1013A00097FB991F61F09F3F79F08795089512167A
:1013B00013061406551FF2CF4695F1DF08C0161626
:1013C00017061806991FF1CF8695710561050894D7
:1013D0000895E894BB2766277727CB0197F90895EE
:1013E0000E94620A08F48FEF08950E94080A0C9484
:1013F000B6090E94A80938F00E94AF0920F0952391
:1014000011F00C949F090C94A50911240C94EA097D
:101410000E94C70970F3959FC1F3950F50E0551FC7
:10142000629FF001729FBB27F00DB11D639FAA2739
:10143000F00DB11DAA1F649F6627B00DA11D661F88
:10144000829F2227B00DA11D621F739FB00DA11DA9
:10145000621F839FA00D611D221F749F3327A00D63
:10146000611D231F849F600D211D822F762F6A2FFF
:1014700011249F5750409AF0F1F088234AF0EE0F64
:10148000FF1FBB1F661F771F881F91505040A9F791
:101490009E3F510580F00C949F090C94EA095F3F30
:1014A000E4F3983ED4F3869577956795B795F795CD
:1014B000E7959F5FC1F7FE2B880F911D9695879545
:1014C00097F90895990F0008550FAA0BE0E8FEEF71
:1014D00016161706E807F907C0F012161306E407F8
:1014E000F50798F0621B730B840B950B39F40A26F1
:1014F00061F0232B242B252B21F408950A2609F4CF
:10150000A140A6958FEF811D811D08952F923F92D6
:101510004F925F926F927F928F929F92AF92BF9203
:10152000CF92DF92EF92FF920F931F93CF93DF93AF
:10153000CDB7DEB7CA1BDB0B0FB6F894DEBF0FBE0C
:10154000CDBF09942A88398848885F846E847D8459
:101550008C849B84AA84B984C884DF80EE80FD805B
:101560000C811B81AA81B981CE0FD11D0FB6F894D1
:10157000DEBF0FBECDBFED010895283008F027E093
:101580003327DA01990F311D87FD916000966105BF
:10159000710539F432602E5F3D9330E32A95E1F70F
:1015A00008959F3F30F080387105610509F03C5F78
:1015B0003C5F3D93913008F08068911DDF93CF939D
:1015C0001F930F93FF92EF92192F987F9695E92F13
:1015D00096959695E90FFF27E25FFE4F99273327EF
:1015E000EE24FF24A701E70105900894079428F44E
:1015F000360FE71EF81E491F511D660F771F881F03
:10160000991F0694A1F70590079428F4E70EF81E99
:10161000491F561FC11D770F881F991F661F06940B
:10162000A1F70590079428F4F80E491F561FC71F0D
:10163000D11D880F991F661F771F0694A1F705908B
:10164000079420F4490F561FC71FD81F990F661F14
:10165000771F881F0694A9F784911095177041F0A1
:10166000D695C79557954795F794E7941A95C1F77E
:10167000E4EBF0E0689415901591359165919591A2
:1016800005907FE27395E118F10A430B560BC90BE5
:10169000D009C0F7E10CF11E431F561FC91FD01D12
:1016A0007EF4703311F48A95E6CFE894015030F05F
:1016B000080F0AF40027021708F4202F2395022FA1
:1016C0007A3328F079E37D932A95E9F710C07D936A
:1016D0002A9589F6069497956795379517951794E7
:1016E000E118F10A430B560BC90BD00998F023956A
:1016F0007E9173957A3308F070E37C932013B8F7EA
:101700007E9170617D9330F0839571E37D9370E3FA
:101710002A95E1F71124EF90FF900F911F91CF913F
:10172000DF91992787FD90950895FC010590615000
:1017300070400110D8F7809590958E0F9F1F0895E7
:10174000FC016150704001900110D8F78095909590
:101750008E0F9F1F08950F931F93CF93DF93182F22
:10176000092FEB018B8181FD09C01FEF0FEF812F46
:10177000902FDF91CF911F910F91089582FF14C098
:101780002E813F818C819D81281739073CF4E881A7
:10179000F981CF0101969983888310838E819F817F
:1017A00001969F838E83E3CFE885F985812F099584
:1017B000892BA1F3DACFAEE0B0E0E1EEFBE00C94D0
:1017C000940A0D891E898F89988D26E02C831A83AF
:1017D000098397FF02C080E090E801979E838D8384
:1017E000AE01455E5F4F698D7A8DCE0101960E94F4
:1017F00036054D815E8157FD0AC02F81388542171D
:1018000053070CF49A01020F131FF80110822E9651
:10181000E4E00C94B00AFA01AA27283051F12031F3
:1018200081F1E8946F936E7F6E5F7F4F8F4F9F4F74
:10183000AF4FB1E03ED0B4E03CD0670F781F891FB6
:101840009A1FA11D680F791F8A1F911DA11D6A0F84
:10185000711D811D911DA11D20D009F468943F9137
:101860002AE0269F11243019305D3193DEF6CF0136
:101870000895462F4770405D4193B3E00FD0C9F7FC
:10188000F6CF462F4F70405D4A3318F0495D31FD69
:101890004052419302D0A9F7EACFB4E0A6959795BC
:1018A000879577956795BA95C9F700976105710592
:1018B00008959B01AC010A2E0694579547953795DC
:1018C0002795BA95C9F7620F731F841F951FA01D36
:0618D0000895F894FFCF1B
:1018D6006E3130323239383235003130323400250B
:1018E600660025640054696D65203D200020202097
:0A18F60020202020202020200000E8
:00000001FF
